{
  "_format": "hh-sol-artifact-1",
  "contractName": "AstroDAO",
  "sourceName": "contracts/AstroDAO.sol",
  "abi": [
    {
      "inputs": [
        {
          "internalType": "address",
          "name": "_governanceToken",
          "type": "address"
        }
      ],
      "stateMutability": "nonpayable",
      "type": "constructor"
    },
    {
      "inputs": [
        {
          "internalType": "address",
          "name": "owner",
          "type": "address"
        }
      ],
      "name": "OwnableInvalidOwner",
      "type": "error"
    },
    {
      "inputs": [
        {
          "internalType": "address",
          "name": "account",
          "type": "address"
        }
      ],
      "name": "OwnableUnauthorizedAccount",
      "type": "error"
    },
    {
      "inputs": [],
      "name": "ReentrancyGuardReentrantCall",
      "type": "error"
    },
    {
      "anonymous": false,
      "inputs": [
        {
          "indexed": true,
          "internalType": "uint256",
          "name": "proposalId",
          "type": "uint256"
        },
        {
          "indexed": false,
          "internalType": "string",
          "name": "title",
          "type": "string"
        },
        {
          "indexed": false,
          "internalType": "string",
          "name": "researcher",
          "type": "string"
        }
      ],
      "name": "DiscoverySubmitted",
      "type": "event"
    },
    {
      "anonymous": false,
      "inputs": [
        {
          "indexed": true,
          "internalType": "address",
          "name": "previousOwner",
          "type": "address"
        },
        {
          "indexed": true,
          "internalType": "address",
          "name": "newOwner",
          "type": "address"
        }
      ],
      "name": "OwnershipTransferred",
      "type": "event"
    },
    {
      "anonymous": false,
      "inputs": [
        {
          "indexed": true,
          "internalType": "uint256",
          "name": "proposalId",
          "type": "uint256"
        },
        {
          "indexed": true,
          "internalType": "address",
          "name": "proposer",
          "type": "address"
        },
        {
          "indexed": false,
          "internalType": "enum AstroDAO.ProposalType",
          "name": "proposalType",
          "type": "uint8"
        },
        {
          "indexed": false,
          "internalType": "string",
          "name": "title",
          "type": "string"
        }
      ],
      "name": "ProposalCreated",
      "type": "event"
    },
    {
      "anonymous": false,
      "inputs": [
        {
          "indexed": true,
          "internalType": "uint256",
          "name": "proposalId",
          "type": "uint256"
        }
      ],
      "name": "ProposalExecuted",
      "type": "event"
    },
    {
      "anonymous": false,
      "inputs": [
        {
          "indexed": true,
          "internalType": "uint256",
          "name": "proposalId",
          "type": "uint256"
        },
        {
          "indexed": true,
          "internalType": "address",
          "name": "voter",
          "type": "address"
        },
        {
          "indexed": false,
          "internalType": "bool",
          "name": "support",
          "type": "bool"
        },
        {
          "indexed": false,
          "internalType": "uint256",
          "name": "weight",
          "type": "uint256"
        }
      ],
      "name": "VoteCast",
      "type": "event"
    },
    {
      "inputs": [
        {
          "internalType": "enum AstroDAO.ProposalType",
          "name": "_type",
          "type": "uint8"
        },
        {
          "internalType": "string",
          "name": "_title",
          "type": "string"
        },
        {
          "internalType": "string",
          "name": "_description",
          "type": "string"
        },
        {
          "internalType": "string",
          "name": "_ipfsHash",
          "type": "string"
        }
      ],
      "name": "createProposal",
      "outputs": [
        {
          "internalType": "uint256",
          "name": "",
          "type": "uint256"
        }
      ],
      "stateMutability": "nonpayable",
      "type": "function"
    },
    {
      "inputs": [
        {
          "internalType": "uint256",
          "name": "",
          "type": "uint256"
        }
      ],
      "name": "discoveries",
      "outputs": [
        {
          "internalType": "uint256",
          "name": "proposalId",
          "type": "uint256"
        },
        {
          "internalType": "string",
          "name": "discoveryTitle",
          "type": "string"
        },
        {
          "internalType": "string",
          "name": "researcherName",
          "type": "string"
        },
        {
          "internalType": "string",
          "name": "paperIPFS",
          "type": "string"
        },
        {
          "internalType": "uint256",
          "name": "votingScore",
          "type": "uint256"
        },
        {
          "internalType": "uint256",
          "name": "timestamp",
          "type": "uint256"
        }
      ],
      "stateMutability": "view",
      "type": "function"
    },
    {
      "inputs": [
        {
          "internalType": "uint256",
          "name": "",
          "type": "uint256"
        }
      ],
      "name": "discoveryProposals",
      "outputs": [
        {
          "internalType": "uint256",
          "name": "",
          "type": "uint256"
        }
      ],
      "stateMutability": "view",
      "type": "function"
    },
    {
      "inputs": [
        {
          "internalType": "uint256",
          "name": "_proposalId",
          "type": "uint256"
        }
      ],
      "name": "finalizeProposal",
      "outputs": [],
      "stateMutability": "nonpayable",
      "type": "function"
    },
    {
      "inputs": [
        {
          "internalType": "uint256",
          "name": "_proposalId",
          "type": "uint256"
        }
      ],
      "name": "getProposal",
      "outputs": [
        {
          "internalType": "uint256",
          "name": "id",
          "type": "uint256"
        },
        {
          "internalType": "address",
          "name": "proposer",
          "type": "address"
        },
        {
          "internalType": "enum AstroDAO.ProposalType",
          "name": "proposalType",
          "type": "uint8"
        },
        {
          "internalType": "string",
          "name": "title",
          "type": "string"
        },
        {
          "internalType": "string",
          "name": "description",
          "type": "string"
        },
        {
          "internalType": "uint256",
          "name": "votesFor",
          "type": "uint256"
        },
        {
          "internalType": "uint256",
          "name": "votesAgainst",
          "type": "uint256"
        },
        {
          "internalType": "uint256",
          "name": "endTime",
          "type": "uint256"
        },
        {
          "internalType": "enum AstroDAO.ProposalStatus",
          "name": "status",
          "type": "uint8"
        }
      ],
      "stateMutability": "view",
      "type": "function"
    },
    {
      "inputs": [
        {
          "internalType": "uint256",
          "name": "_count",
          "type": "uint256"
        }
      ],
      "name": "getTopDiscoveries",
      "outputs": [
        {
          "internalType": "uint256[]",
          "name": "",
          "type": "uint256[]"
        }
      ],
      "stateMutability": "view",
      "type": "function"
    },
    {
      "inputs": [],
      "name": "getWeeklyTopics",
      "outputs": [
        {
          "internalType": "uint256[]",
          "name": "",
          "type": "uint256[]"
        }
      ],
      "stateMutability": "view",
      "type": "function"
    },
    {
      "inputs": [],
      "name": "governanceToken",
      "outputs": [
        {
          "internalType": "contract IERC20",
          "name": "",
          "type": "address"
        }
      ],
      "stateMutability": "view",
      "type": "function"
    },
    {
      "inputs": [
        {
          "internalType": "uint256",
          "name": "_proposalId",
          "type": "uint256"
        },
        {
          "internalType": "address",
          "name": "_voter",
          "type": "address"
        }
      ],
      "name": "hasVoted",
      "outputs": [
        {
          "internalType": "bool",
          "name": "",
          "type": "bool"
        }
      ],
      "stateMutability": "view",
      "type": "function"
    },
    {
      "inputs": [
        {
          "internalType": "uint256",
          "name": "",
          "type": "uint256"
        }
      ],
      "name": "knowledgeSharingProposals",
      "outputs": [
        {
          "internalType": "uint256",
          "name": "",
          "type": "uint256"
        }
      ],
      "stateMutability": "view",
      "type": "function"
    },
    {
      "inputs": [],
      "name": "minTokensToPropose",
      "outputs": [
        {
          "internalType": "uint256",
          "name": "",
          "type": "uint256"
        }
      ],
      "stateMutability": "view",
      "type": "function"
    },
    {
      "inputs": [],
      "name": "owner",
      "outputs": [
        {
          "internalType": "address",
          "name": "",
          "type": "address"
        }
      ],
      "stateMutability": "view",
      "type": "function"
    },
    {
      "inputs": [],
      "name": "proposalCount",
      "outputs": [
        {
          "internalType": "uint256",
          "name": "",
          "type": "uint256"
        }
      ],
      "stateMutability": "view",
      "type": "function"
    },
    {
      "inputs": [
        {
          "internalType": "uint256",
          "name": "",
          "type": "uint256"
        }
      ],
      "name": "proposals",
      "outputs": [
        {
          "internalType": "uint256",
          "name": "id",
          "type": "uint256"
        },
        {
          "internalType": "address",
          "name": "proposer",
          "type": "address"
        },
        {
          "internalType": "enum AstroDAO.ProposalType",
          "name": "proposalType",
          "type": "uint8"
        },
        {
          "internalType": "string",
          "name": "title",
          "type": "string"
        },
        {
          "internalType": "string",
          "name": "description",
          "type": "string"
        },
        {
          "internalType": "string",
          "name": "ipfsHash",
          "type": "string"
        },
        {
          "internalType": "uint256",
          "name": "votesFor",
          "type": "uint256"
        },
        {
          "internalType": "uint256",
          "name": "votesAgainst",
          "type": "uint256"
        },
        {
          "internalType": "uint256",
          "name": "startTime",
          "type": "uint256"
        },
        {
          "internalType": "uint256",
          "name": "endTime",
          "type": "uint256"
        },
        {
          "internalType": "enum AstroDAO.ProposalStatus",
          "name": "status",
          "type": "uint8"
        },
        {
          "internalType": "bool",
          "name": "executed",
          "type": "bool"
        }
      ],
      "stateMutability": "view",
      "type": "function"
    },
    {
      "inputs": [],
      "name": "quorumPercentage",
      "outputs": [
        {
          "internalType": "uint256",
          "name": "",
          "type": "uint256"
        }
      ],
      "stateMutability": "view",
      "type": "function"
    },
    {
      "inputs": [],
      "name": "renounceOwnership",
      "outputs": [],
      "stateMutability": "nonpayable",
      "type": "function"
    },
    {
      "inputs": [
        {
          "internalType": "string",
          "name": "_title",
          "type": "string"
        },
        {
          "internalType": "string",
          "name": "_description",
          "type": "string"
        },
        {
          "internalType": "string",
          "name": "_researcherName",
          "type": "string"
        },
        {
          "internalType": "string",
          "name": "_paperIPFS",
          "type": "string"
        }
      ],
      "name": "submitDiscovery",
      "outputs": [
        {
          "internalType": "uint256",
          "name": "",
          "type": "uint256"
        }
      ],
      "stateMutability": "nonpayable",
      "type": "function"
    },
    {
      "inputs": [
        {
          "internalType": "address",
          "name": "newOwner",
          "type": "address"
        }
      ],
      "name": "transferOwnership",
      "outputs": [],
      "stateMutability": "nonpayable",
      "type": "function"
    },
    {
      "inputs": [
        {
          "internalType": "uint256",
          "name": "_minTokensToPropose",
          "type": "uint256"
        },
        {
          "internalType": "uint256",
          "name": "_votingPeriod",
          "type": "uint256"
        },
        {
          "internalType": "uint256",
          "name": "_quorumPercentage",
          "type": "uint256"
        }
      ],
      "name": "updateParameters",
      "outputs": [],
      "stateMutability": "nonpayable",
      "type": "function"
    },
    {
      "inputs": [
        {
          "internalType": "uint256",
          "name": "_proposalId",
          "type": "uint256"
        },
        {
          "internalType": "bool",
          "name": "_support",
          "type": "bool"
        }
      ],
      "name": "vote",
      "outputs": [],
      "stateMutability": "nonpayable",
      "type": "function"
    },
    {
      "inputs": [],
      "name": "votingPeriod",
      "outputs": [
        {
          "internalType": "uint256",
          "name": "",
          "type": "uint256"
        }
      ],
      "stateMutability": "view",
      "type": "function"
    },
    {
      "inputs": [
        {
          "internalType": "uint256",
          "name": "",
          "type": "uint256"
        }
      ],
      "name": "weeklyTopicProposals",
      "outputs": [
        {
          "internalType": "uint256",
          "name": "",
          "type": "uint256"
        }
      ],
      "stateMutability": "view",
      "type": "function"
    }
  ],
  "bytecode": "0x608060405268056bc75e2d6310000060045562093a80600555600a6006553480156200002a57600080fd5b5060405162001db138038062001db18339810160408190526200004d91620000fa565b33806200007457604051631e4fbdf760e01b81526000600482015260240160405180910390fd5b6200007f81620000aa565b5060018055600280546001600160a01b0319166001600160a01b03929092169190911790556200012c565b600080546001600160a01b038381166001600160a01b0319831681178455604051919092169283917f8be0079c531659141344cd1fd0a4f28419497f9722a3daafe3b4186f6b6457e09190a35050565b6000602082840312156200010d57600080fd5b81516001600160a01b03811681146200012557600080fd5b9392505050565b611c75806200013c6000396000f3fe608060405234801561001057600080fd5b50600436106101425760003560e01c8063715018a6116100b8578063c9d27afe1161007c578063c9d27afe146102ca578063da35c664146102dd578063def8761b146102e6578063f2fde38b146102f9578063f76d50ad1461030c578063f96dae0a1461031f57600080fd5b8063715018a61461024f5780638147fc9a146102575780638da5cb5b1461026a5780639732b2181461028f578063c7f758a8146102a257600080fd5b80634f8ad3511161010a5780634f8ad351146101e35780634fa76ec9146101f857806354cd9e8c146102015780635652077c146102145780635941c44114610229578063696a21d21461023c57600080fd5b8063013cf08b1461014757806302a251a31461017b578063438596321461019257806348d82f4f146101b55780634d61ac31146101be575b600080fd5b61015a61015536600461151b565b610332565b6040516101729c9b9a999897969594939291906115ae565b60405180910390f35b61018460055481565b604051908152602001610172565b6101a56101a0366004611671565b61053c565b6040519015158152602001610172565b61018460045481565b6101d16101cc36600461151b565b61056c565b6040516101729695949392919061169d565b6101eb610739565b60405161017291906116f2565b61018460065481565b61018461020f36600461151b565b610791565b61022761022236600461151b565b6107b2565b005b6101846102373660046117d9565b6109ad565b61018461024a36600461151b565b610a97565b610227610aa7565b6101eb61026536600461151b565b610abb565b6000546001600160a01b03165b6040516001600160a01b039091168152602001610172565b61018461029d366004611886565b610cda565b6102b56102b036600461151b565b610fa7565b604051610172999897969594939291906118c8565b6102276102d8366004611947565b611149565b61018460035481565b6101846102f436600461151b565b61143a565b61022761030736600461197c565b61144a565b61022761031a36600461199e565b611488565b600254610277906001600160a01b031681565b60076020526000908152604090208054600182015460028301805492936001600160a01b03831693600160a01b90930460ff1692909190610372906119ca565b80601f016020809104026020016040519081016040528092919081815260200182805461039e906119ca565b80156103eb5780601f106103c0576101008083540402835291602001916103eb565b820191906000526020600020905b8154815290600101906020018083116103ce57829003601f168201915b505050505090806003018054610400906119ca565b80601f016020809104026020016040519081016040528092919081815260200182805461042c906119ca565b80156104795780601f1061044e57610100808354040283529160200191610479565b820191906000526020600020905b81548152906001019060200180831161045c57829003601f168201915b50505050509080600401805461048e906119ca565b80601f01602080910402602001604051908101604052809291908181526020018280546104ba906119ca565b80156105075780601f106104dc57610100808354040283529160200191610507565b820191906000526020600020905b8154815290600101906020018083116104ea57829003601f168201915b505050600584015460068501546007860154600887015460099097015495969295919450925060ff808216916101009004168c565b60008281526007602090815260408083206001600160a01b0385168452600a0190915290205460ff165b92915050565b6008602052600090815260409020805460018201805491929161058e906119ca565b80601f01602080910402602001604051908101604052809291908181526020018280546105ba906119ca565b80156106075780601f106105dc57610100808354040283529160200191610607565b820191906000526020600020905b8154815290600101906020018083116105ea57829003601f168201915b50505050509080600201805461061c906119ca565b80601f0160208091040260200160405190810160405280929190818152602001828054610648906119ca565b80156106955780601f1061066a57610100808354040283529160200191610695565b820191906000526020600020905b81548152906001019060200180831161067857829003601f168201915b5050505050908060030180546106aa906119ca565b80601f01602080910402602001604051908101604052809291908181526020018280546106d6906119ca565b80156107235780601f106106f857610100808354040283529160200191610723565b820191906000526020600020905b81548152906001019060200180831161070657829003601f168201915b5050505050908060040154908060050154905086565b6060600980548060200260200160405190810160405280929190818152602001828054801561078757602002820191906000526020600020905b815481526020019060010190808311610773575b5050505050905090565b600a81815481106107a157600080fd5b600091825260209091200154905081565b600081815260076020526040812080549091036108105760405162461bcd60e51b8152602060048201526017602482015276141c9bdc1bdcd85b08191bd95cc81b9bdd08195e1a5cdd604a1b60448201526064015b60405180910390fd5b806008015442116108595760405162461bcd60e51b8152602060048201526013602482015272566f74696e67207374696c6c2061637469766560681b6044820152606401610807565b6001600982015460ff16600481111561087457610874611534565b146108b55760405162461bcd60e51b8152602060048201526011602482015270105b1c9958591e48199a5b985b1a5e9959607a1b6044820152606401610807565b6000816006015482600501546108cb9190611a1a565b90506000600260009054906101000a90046001600160a01b03166001600160a01b03166318160ddd6040518163ffffffff1660e01b8152600401602060405180830381865afa158015610922573d6000803e3d6000fd5b505050506040513d601f19601f820116820180604052508101906109469190611a2d565b9050600060646006548361095a9190611a46565b6109649190611a5d565b905080831015801561097d575083600601548460050154115b156109965760098401805460ff191660021790556109a6565b60098401805460ff191660031790555b5050505050565b6000806109bd6001878786610cda565b6040805160c08101825282815260208082018a8152828401899052606083018890526000608084018190524260a08501528581526008909252929020815181559151929350916001820190610a129082611ace565b5060408201516002820190610a279082611ace565b5060608201516003820190610a3c9082611ace565b506080820151816004015560a08201518160050155905050807f66189ae8c589fb36ff8dd983e7af2a48d602eac72064b026cb240d83ad5f37c58786604051610a86929190611b8e565b60405180910390a295945050505050565b600b81815481106107a157600080fd5b610aaf61149e565b610ab960006114cb565b565b606060008267ffffffffffffffff811115610ad857610ad8611736565b604051908082528060200260200182016040528015610b01578160200160208202803683370190505b50905060008367ffffffffffffffff811115610b1f57610b1f611736565b604051908082528060200260200182016040528015610b48578160200160208202803683370190505b50905060005b600a54811015610cd1576000600a8281548110610b6d57610b6d611bbc565b600091825260208083209091015480835260089091526040822060040154909250905b87811015610cbb57848181518110610baa57610baa611bbc565b6020026020010151821115610ca9576000610bc660018a611bd2565b90505b81811115610c655785610bdd600183611bd2565b81518110610bed57610bed611bbc565b6020026020010151868281518110610c0757610c07611bbc565b602090810291909101015286610c1e600183611bd2565b81518110610c2e57610c2e611bbc565b6020026020010151878281518110610c4857610c48611bbc565b602090810291909101015280610c5d81611be5565b915050610bc9565b5081858281518110610c7957610c79611bbc565b60200260200101818152505082868281518110610c9857610c98611bbc565b602002602001018181525050610cbb565b80610cb381611bfc565b915050610b90565b5050508080610cc990611bfc565b915050610b4e565b50909392505050565b600480546002546040516370a0823160e01b815233938101939093526000926001600160a01b03909116906370a0823190602401602060405180830381865afa158015610d2b573d6000803e3d6000fd5b505050506040513d601f19601f82011682018060405250810190610d4f9190611a2d565b1015610d9d5760405162461bcd60e51b815260206004820152601e60248201527f496e73756666696369656e7420746f6b656e7320746f2070726f706f736500006044820152606401610807565b60038054906000610dad83611bfc565b90915550506003546000818152600760205260409020818155600181018054336001600160a01b03198216811783558992916001600160a81b03191660ff60a01b1990911617600160a01b836004811115610e0a57610e0a611534565b021790555060028101610e1d8782611ace565b5060038101610e2c8682611ace565b5060048101610e3b8582611ace565b504260078201819055600554610e5091611a1a565b600882015560098101805460ff191660011790556000876004811115610e7857610e78611534565b03610eb757600980546001810182556000919091527f6e1540171b6c0c960b71a7020d9f60077f6af931a8bbf590da0223dacf75c7af01829055610f59565b6001876004811115610ecb57610ecb611534565b03610f0a57600a80546001810182556000919091527fc65a7bb8d6351c1cf70c95a316cc6a92839c986682d98bc35f958f4883f9d2a801829055610f59565b6002876004811115610f1e57610f1e611534565b03610f5957600b80546001810182556000919091527f0175b7a638427703f0dbe7bb9bbf987a2551717b34e79f33b5b1008d1fa01db9018290555b336001600160a01b0316827f8356bc5007056a642094f44da4e8e22469db3e8a36b5811c0f91f735f1491c798989604051610f95929190611c15565b60405180910390a35095945050505050565b60008181526007602052604081208054600182015460058301546006840154600885015460098601546002870180548998899860609889988b98899889988998969795966001600160a01b0386169660ff600160a01b909704871696919560038b01959094909390921690869061101d906119ca565b80601f0160208091040260200160405190810160405280929190818152602001828054611049906119ca565b80156110965780601f1061106b57610100808354040283529160200191611096565b820191906000526020600020905b81548152906001019060200180831161107957829003601f168201915b505050505095508480546110a9906119ca565b80601f01602080910402602001604051908101604052809291908181526020018280546110d5906119ca565b80156111225780601f106110f757610100808354040283529160200191611122565b820191906000526020600020905b81548152906001019060200180831161110557829003601f168201915b50505050509450995099509950995099509950995099509950509193959799909294969850565b600082815260076020526040812080549091036111a25760405162461bcd60e51b8152602060048201526017602482015276141c9bdc1bdcd85b08191bd95cc81b9bdd08195e1a5cdd604a1b6044820152606401610807565b80600801544211156111ec5760405162461bcd60e51b8152602060048201526013602482015272159bdd1a5b99c81c195c9a5bd908195b991959606a1b6044820152606401610807565b336000908152600a8201602052604090205460ff161561123e5760405162461bcd60e51b815260206004820152600d60248201526c105b1c9958591e481d9bdd1959609a1b6044820152606401610807565b6001600982015460ff16600481111561125957611259611534565b1461129c5760405162461bcd60e51b815260206004820152601360248201527250726f706f73616c206e6f742061637469766560681b6044820152606401610807565b6002546040516370a0823160e01b81523360048201526000916001600160a01b0316906370a0823190602401602060405180830381865afa1580156112e5573d6000803e3d6000fd5b505050506040513d601f19601f820116820180604052508101906113099190611a2d565b90506000811161134d5760405162461bcd60e51b815260206004820152600f60248201526e2737903b37ba34b733903837bbb2b960891b6044820152606401610807565b336000908152600a830160209081526040808320805460ff19166001179055600b85019091529020819055821561139d57808260050160008282546113929190611a1a565b909155506113b79050565b808260060160008282546113b19190611a1a565b90915550505b600180830154600160a01b900460ff1660048111156113d8576113d8611534565b036113f55760058201546000858152600860205260409020600401555b60408051841515815260208101839052339186917fcbdf6214089cba887ecbf35a0b6a734589959c9763342c756bb2a80ca2bc9f6e910160405180910390a350505050565b600981815481106107a157600080fd5b61145261149e565b6001600160a01b03811661147c57604051631e4fbdf760e01b815260006004820152602401610807565b611485816114cb565b50565b61149061149e565b600492909255600555600655565b6000546001600160a01b03163314610ab95760405163118cdaa760e01b8152336004820152602401610807565b600080546001600160a01b038381166001600160a01b0319831681178455604051919092169283917f8be0079c531659141344cd1fd0a4f28419497f9722a3daafe3b4186f6b6457e09190a35050565b60006020828403121561152d57600080fd5b5035919050565b634e487b7160e01b600052602160045260246000fd5b6005811061148557634e487b7160e01b600052602160045260246000fd5b6000815180845260005b8181101561158e57602081850181015186830182015201611572565b506000602082860101526020601f19601f83011685010191505092915050565b8c81526001600160a01b038c16602082015260006101806115ce8d61154a565b8c60408401528060608401526115e68184018d611568565b905082810360808401526115fa818c611568565b905082810360a084015261160e818b611568565b9150508760c08301528660e083015285610100830152846101208301526116348461154a565b836101408301528215156101608301529d9c50505050505050505050505050565b80356001600160a01b038116811461166c57600080fd5b919050565b6000806040838503121561168457600080fd5b8235915061169460208401611655565b90509250929050565b86815260c0602082015260006116b660c0830188611568565b82810360408401526116c88188611568565b905082810360608401526116dc8187611568565b6080840195909552505060a00152949350505050565b6020808252825182820181905260009190848201906040850190845b8181101561172a5783518352928401929184019160010161170e565b50909695505050505050565b634e487b7160e01b600052604160045260246000fd5b600082601f83011261175d57600080fd5b813567ffffffffffffffff8082111561177857611778611736565b604051601f8301601f19908116603f011681019082821181831017156117a0576117a0611736565b816040528381528660208588010111156117b957600080fd5b836020870160208301376000602085830101528094505050505092915050565b600080600080608085870312156117ef57600080fd5b843567ffffffffffffffff8082111561180757600080fd5b6118138883890161174c565b9550602087013591508082111561182957600080fd5b6118358883890161174c565b9450604087013591508082111561184b57600080fd5b6118578883890161174c565b9350606087013591508082111561186d57600080fd5b5061187a8782880161174c565b91505092959194509250565b6000806000806080858703121561189c57600080fd5b8435600581106118ab57600080fd5b9350602085013567ffffffffffffffff8082111561182957600080fd5b8981526001600160a01b038916602082015260006101206118e88a61154a565b8960408401528060608401526119008184018a611568565b905082810360808401526119148189611568565b9150508560a08301528460c08301528360e08301526119328361154a565b826101008301529a9950505050505050505050565b6000806040838503121561195a57600080fd5b823591506020830135801515811461197157600080fd5b809150509250929050565b60006020828403121561198e57600080fd5b61199782611655565b9392505050565b6000806000606084860312156119b357600080fd5b505081359360208301359350604090920135919050565b600181811c908216806119de57607f821691505b6020821081036119fe57634e487b7160e01b600052602260045260246000fd5b50919050565b634e487b7160e01b600052601160045260246000fd5b8082018082111561056657610566611a04565b600060208284031215611a3f57600080fd5b5051919050565b808202811582820484141761056657610566611a04565b600082611a7a57634e487b7160e01b600052601260045260246000fd5b500490565b601f821115611ac957600081815260208120601f850160051c81016020861015611aa65750805b601f850160051c820191505b81811015611ac557828155600101611ab2565b5050505b505050565b815167ffffffffffffffff811115611ae857611ae8611736565b611afc81611af684546119ca565b84611a7f565b602080601f831160018114611b315760008415611b195750858301515b600019600386901b1c1916600185901b178555611ac5565b600085815260208120601f198616915b82811015611b6057888601518255948401946001909101908401611b41565b5085821015611b7e5787850151600019600388901b60f8161c191681555b5050505050600190811b01905550565b604081526000611ba16040830185611568565b8281036020840152611bb38185611568565b95945050505050565b634e487b7160e01b600052603260045260246000fd5b8181038181111561056657610566611a04565b600081611bf457611bf4611a04565b506000190190565b600060018201611c0e57611c0e611a04565b5060010190565b611c1e8361154a565b828152604060208201526000611c376040830184611568565b94935050505056fea2646970667358221220faadce91be8b80d989b4c6cbcc542061f1f960f7df2a3314b9f84fbfebaecbff64736f6c63430008140033",
  "linkReferences": {},
  "deployedLinkReferences": {}
}