{
  "_format": "hh-sol-artifact-1",
  "contractName": "AstroToken",
  "sourceName": "contracts/AstroToken.sol",
  "abi": [
    {
      "inputs": [
        {
          "internalType": "address",
          "name": "_daoTreasury",
          "type": "address"
        },
        {
          "internalType": "address",
          "name": "_researchFund",
          "type": "address"
        }
      ],
      "stateMutability": "nonpayable",
      "type": "constructor"
    },
    {
      "inputs": [
        {
          "internalType": "address",
          "name": "spender",
          "type": "address"
        },
        {
          "internalType": "uint256",
          "name": "allowance",
          "type": "uint256"
        },
        {
          "internalType": "uint256",
          "name": "needed",
          "type": "uint256"
        }
      ],
      "name": "ERC20InsufficientAllowance",
      "type": "error"
    },
    {
      "inputs": [
        {
          "internalType": "address",
          "name": "sender",
          "type": "address"
        },
        {
          "internalType": "uint256",
          "name": "balance",
          "type": "uint256"
        },
        {
          "internalType": "uint256",
          "name": "needed",
          "type": "uint256"
        }
      ],
      "name": "ERC20InsufficientBalance",
      "type": "error"
    },
    {
      "inputs": [
        {
          "internalType": "address",
          "name": "approver",
          "type": "address"
        }
      ],
      "name": "ERC20InvalidApprover",
      "type": "error"
    },
    {
      "inputs": [
        {
          "internalType": "address",
          "name": "receiver",
          "type": "address"
        }
      ],
      "name": "ERC20InvalidReceiver",
      "type": "error"
    },
    {
      "inputs": [
        {
          "internalType": "address",
          "name": "sender",
          "type": "address"
        }
      ],
      "name": "ERC20InvalidSender",
      "type": "error"
    },
    {
      "inputs": [
        {
          "internalType": "address",
          "name": "spender",
          "type": "address"
        }
      ],
      "name": "ERC20InvalidSpender",
      "type": "error"
    },
    {
      "inputs": [
        {
          "internalType": "address",
          "name": "owner",
          "type": "address"
        }
      ],
      "name": "OwnableInvalidOwner",
      "type": "error"
    },
    {
      "inputs": [
        {
          "internalType": "address",
          "name": "account",
          "type": "address"
        }
      ],
      "name": "OwnableUnauthorizedAccount",
      "type": "error"
    },
    {
      "anonymous": false,
      "inputs": [
        {
          "indexed": true,
          "internalType": "address",
          "name": "owner",
          "type": "address"
        },
        {
          "indexed": true,
          "internalType": "address",
          "name": "spender",
          "type": "address"
        },
        {
          "indexed": false,
          "internalType": "uint256",
          "name": "value",
          "type": "uint256"
        }
      ],
      "name": "Approval",
      "type": "event"
    },
    {
      "anonymous": false,
      "inputs": [
        {
          "indexed": true,
          "internalType": "address",
          "name": "previousOwner",
          "type": "address"
        },
        {
          "indexed": true,
          "internalType": "address",
          "name": "newOwner",
          "type": "address"
        }
      ],
      "name": "OwnershipTransferred",
      "type": "event"
    },
    {
      "anonymous": false,
      "inputs": [
        {
          "indexed": true,
          "internalType": "address",
          "name": "from",
          "type": "address"
        },
        {
          "indexed": true,
          "internalType": "address",
          "name": "to",
          "type": "address"
        },
        {
          "indexed": false,
          "internalType": "uint256",
          "name": "value",
          "type": "uint256"
        }
      ],
      "name": "Transfer",
      "type": "event"
    },
    {
      "inputs": [],
      "name": "COMMUNITY_ALLOCATION",
      "outputs": [
        {
          "internalType": "uint256",
          "name": "",
          "type": "uint256"
        }
      ],
      "stateMutability": "view",
      "type": "function"
    },
    {
      "inputs": [],
      "name": "DAO_TREASURY",
      "outputs": [
        {
          "internalType": "uint256",
          "name": "",
          "type": "uint256"
        }
      ],
      "stateMutability": "view",
      "type": "function"
    },
    {
      "inputs": [],
      "name": "MAX_SUPPLY",
      "outputs": [
        {
          "internalType": "uint256",
          "name": "",
          "type": "uint256"
        }
      ],
      "stateMutability": "view",
      "type": "function"
    },
    {
      "inputs": [],
      "name": "RESEARCH_GRANTS",
      "outputs": [
        {
          "internalType": "uint256",
          "name": "",
          "type": "uint256"
        }
      ],
      "stateMutability": "view",
      "type": "function"
    },
    {
      "inputs": [],
      "name": "TEAM_ALLOCATION",
      "outputs": [
        {
          "internalType": "uint256",
          "name": "",
          "type": "uint256"
        }
      ],
      "stateMutability": "view",
      "type": "function"
    },
    {
      "inputs": [
        {
          "internalType": "address",
          "name": "owner",
          "type": "address"
        },
        {
          "internalType": "address",
          "name": "spender",
          "type": "address"
        }
      ],
      "name": "allowance",
      "outputs": [
        {
          "internalType": "uint256",
          "name": "",
          "type": "uint256"
        }
      ],
      "stateMutability": "view",
      "type": "function"
    },
    {
      "inputs": [
        {
          "internalType": "address",
          "name": "spender",
          "type": "address"
        },
        {
          "internalType": "uint256",
          "name": "value",
          "type": "uint256"
        }
      ],
      "name": "approve",
      "outputs": [
        {
          "internalType": "bool",
          "name": "",
          "type": "bool"
        }
      ],
      "stateMutability": "nonpayable",
      "type": "function"
    },
    {
      "inputs": [
        {
          "internalType": "address",
          "name": "account",
          "type": "address"
        }
      ],
      "name": "balanceOf",
      "outputs": [
        {
          "internalType": "uint256",
          "name": "",
          "type": "uint256"
        }
      ],
      "stateMutability": "view",
      "type": "function"
    },
    {
      "inputs": [
        {
          "internalType": "uint256",
          "name": "value",
          "type": "uint256"
        }
      ],
      "name": "burn",
      "outputs": [],
      "stateMutability": "nonpayable",
      "type": "function"
    },
    {
      "inputs": [
        {
          "internalType": "address",
          "name": "account",
          "type": "address"
        },
        {
          "internalType": "uint256",
          "name": "value",
          "type": "uint256"
        }
      ],
      "name": "burnFrom",
      "outputs": [],
      "stateMutability": "nonpayable",
      "type": "function"
    },
    {
      "inputs": [],
      "name": "daoTreasury",
      "outputs": [
        {
          "internalType": "address",
          "name": "",
          "type": "address"
        }
      ],
      "stateMutability": "view",
      "type": "function"
    },
    {
      "inputs": [],
      "name": "decimals",
      "outputs": [
        {
          "internalType": "uint8",
          "name": "",
          "type": "uint8"
        }
      ],
      "stateMutability": "view",
      "type": "function"
    },
    {
      "inputs": [
        {
          "internalType": "address",
          "name": "to",
          "type": "address"
        },
        {
          "internalType": "uint256",
          "name": "amount",
          "type": "uint256"
        }
      ],
      "name": "mint",
      "outputs": [],
      "stateMutability": "nonpayable",
      "type": "function"
    },
    {
      "inputs": [],
      "name": "name",
      "outputs": [
        {
          "internalType": "string",
          "name": "",
          "type": "string"
        }
      ],
      "stateMutability": "view",
      "type": "function"
    },
    {
      "inputs": [],
      "name": "owner",
      "outputs": [
        {
          "internalType": "address",
          "name": "",
          "type": "address"
        }
      ],
      "stateMutability": "view",
      "type": "function"
    },
    {
      "inputs": [],
      "name": "renounceOwnership",
      "outputs": [],
      "stateMutability": "nonpayable",
      "type": "function"
    },
    {
      "inputs": [],
      "name": "researchFund",
      "outputs": [
        {
          "internalType": "address",
          "name": "",
          "type": "address"
        }
      ],
      "stateMutability": "view",
      "type": "function"
    },
    {
      "inputs": [],
      "name": "symbol",
      "outputs": [
        {
          "internalType": "string",
          "name": "",
          "type": "string"
        }
      ],
      "stateMutability": "view",
      "type": "function"
    },
    {
      "inputs": [],
      "name": "totalSupply",
      "outputs": [
        {
          "internalType": "uint256",
          "name": "",
          "type": "uint256"
        }
      ],
      "stateMutability": "view",
      "type": "function"
    },
    {
      "inputs": [
        {
          "internalType": "address",
          "name": "to",
          "type": "address"
        },
        {
          "internalType": "uint256",
          "name": "value",
          "type": "uint256"
        }
      ],
      "name": "transfer",
      "outputs": [
        {
          "internalType": "bool",
          "name": "",
          "type": "bool"
        }
      ],
      "stateMutability": "nonpayable",
      "type": "function"
    },
    {
      "inputs": [
        {
          "internalType": "address",
          "name": "from",
          "type": "address"
        },
        {
          "internalType": "address",
          "name": "to",
          "type": "address"
        },
        {
          "internalType": "uint256",
          "name": "value",
          "type": "uint256"
        }
      ],
      "name": "transferFrom",
      "outputs": [
        {
          "internalType": "bool",
          "name": "",
          "type": "bool"
        }
      ],
      "stateMutability": "nonpayable",
      "type": "function"
    },
    {
      "inputs": [
        {
          "internalType": "address",
          "name": "newOwner",
          "type": "address"
        }
      ],
      "name": "transferOwnership",
      "outputs": [],
      "stateMutability": "nonpayable",
      "type": "function"
    }
  ],
  "bytecode": "0x60806040523480156200001157600080fd5b506040516200109c3803806200109c8339810160408190526200003491620003fb565b336040518060400160405280600b81526020016a20b9ba3937902a37b5b2b760a91b81525060405180604001604052806005815260200164415354524f60d81b8152508160039081620000889190620004d8565b506004620000978282620004d8565b5050506001600160a01b038116620000ca57604051631e4fbdf760e01b8152600060048201526024015b60405180910390fd5b620000d5816200021b565b506001600160a01b0382166200012e5760405162461bcd60e51b815260206004820152601860248201527f496e76616c6964207472656173757279206164647265737300000000000000006044820152606401620000c1565b6001600160a01b038116620001865760405162461bcd60e51b815260206004820152601d60248201527f496e76616c69642072657365617263682066756e6420616464726573730000006044820152606401620000c1565b600680546001600160a01b038085166001600160a01b0319928316179092556007805492841692909116919091179055620001cd336a52b7d2dcc80cd2e40000006200026d565b620001e4826af8277896582678ac0000006200026d565b620001fb816aa56fa5b99019a5c80000006200026d565b62000213336b014adf4b7320334b900000006200026d565b5050620005cc565b600580546001600160a01b038381166001600160a01b0319831681179093556040519116919082907f8be0079c531659141344cd1fd0a4f28419497f9722a3daafe3b4186f6b6457e090600090a35050565b6001600160a01b038216620002995760405163ec442f0560e01b815260006004820152602401620000c1565b620002a760008383620002ab565b5050565b6001600160a01b038316620002da578060026000828254620002ce9190620005a4565b909155506200034e9050565b6001600160a01b038316600090815260208190526040902054818110156200032f5760405163391434e360e21b81526001600160a01b03851660048201526024810182905260448101839052606401620000c1565b6001600160a01b03841660009081526020819052604090209082900390555b6001600160a01b0382166200036c576002805482900390556200038b565b6001600160a01b03821660009081526020819052604090208054820190555b816001600160a01b0316836001600160a01b03167fddf252ad1be2c89b69c2b068fc378daa952ba7f163c4a11628f55a4df523b3ef83604051620003d191815260200190565b60405180910390a3505050565b80516001600160a01b0381168114620003f657600080fd5b919050565b600080604083850312156200040f57600080fd5b6200041a83620003de565b91506200042a60208401620003de565b90509250929050565b634e487b7160e01b600052604160045260246000fd5b600181811c908216806200045e57607f821691505b6020821081036200047f57634e487b7160e01b600052602260045260246000fd5b50919050565b601f821115620004d357600081815260208120601f850160051c81016020861015620004ae5750805b601f850160051c820191505b81811015620004cf57828155600101620004ba565b5050505b505050565b81516001600160401b03811115620004f457620004f462000433565b6200050c8162000505845462000449565b8462000485565b602080601f8311600181146200054457600084156200052b5750858301515b600019600386901b1c1916600185901b178555620004cf565b600085815260208120601f198616915b82811015620005755788860151825594840194600190910190840162000554565b5085821015620005945787850151600019600388901b60f8161c191681555b5050505050600190811b01905550565b80820180821115620005c657634e487b7160e01b600052601160045260246000fd5b92915050565b610ac080620005dc6000396000f3fe608060405234801561001057600080fd5b50600436106101425760003560e01c806379022a9f116100b85780639dc78ee61161007c5780639dc78ee6146102a5578063a9059cbb146102b7578063dd62ed3e146102ca578063edcb96b414610303578063f2fde38b14610315578063fd99cbed1461032857600080fd5b806379022a9f1461025357806379cc6790146102665780638da5cb5b1461027957806395d89b411461028a578063993eb1c51461029257600080fd5b806332cb6b0c1161010a57806332cb6b0c146101bc578063368e3daf146101cf57806340c10f19146101fa57806342966c681461020f57806370a0823114610222578063715018a61461024b57600080fd5b806306fdde0314610147578063095ea7b31461016557806318160ddd1461018857806323b872dd1461019a578063313ce567146101ad575b600080fd5b61014f61033a565b60405161015c91906108f1565b60405180910390f35b61017861017336600461095b565b6103cc565b604051901515815260200161015c565b6002545b60405190815260200161015c565b6101786101a8366004610985565b6103e6565b6040516012815260200161015c565b61018c6b033b2e3c9fd0803ce800000081565b6007546101e2906001600160a01b031681565b6040516001600160a01b03909116815260200161015c565b61020d61020836600461095b565b61040a565b005b61020d61021d3660046109c1565b610489565b61018c6102303660046109da565b6001600160a01b031660009081526020819052604090205490565b61020d610496565b6006546101e2906001600160a01b031681565b61020d61027436600461095b565b6104aa565b6005546001600160a01b03166101e2565b61014f6104bf565b61018c6b014adf4b7320334b9000000081565b61018c6af8277896582678ac00000081565b6101786102c536600461095b565b6104ce565b61018c6102d83660046109fc565b6001600160a01b03918216600090815260016020908152604080832093909416825291909152205490565b61018c6aa56fa5b99019a5c800000081565b61020d6103233660046109da565b6104dc565b61018c6a52b7d2dcc80cd2e400000081565b60606003805461034990610a2f565b80601f016020809104026020016040519081016040528092919081815260200182805461037590610a2f565b80156103c25780601f10610397576101008083540402835291602001916103c2565b820191906000526020600020905b8154815290600101906020018083116103a557829003601f168201915b5050505050905090565b6000336103da818585610517565b60019150505b92915050565b6000336103f4858285610529565b6103ff8585856105a8565b506001949350505050565b610412610607565b6b033b2e3c9fd0803ce80000008161042960025490565b6104339190610a69565b111561047b5760405162461bcd60e51b815260206004820152601260248201527145786365656473206d617820737570706c7960701b60448201526064015b60405180910390fd5b6104858282610634565b5050565b610493338261066a565b50565b61049e610607565b6104a860006106a0565b565b6104b5823383610529565b610485828261066a565b60606004805461034990610a2f565b6000336103da8185856105a8565b6104e4610607565b6001600160a01b03811661050e57604051631e4fbdf760e01b815260006004820152602401610472565b610493816106a0565b61052483838360016106f2565b505050565b6001600160a01b038381166000908152600160209081526040808320938616835292905220546000198110156105a2578181101561059357604051637dc7a0d960e11b81526001600160a01b03841660048201526024810182905260448101839052606401610472565b6105a2848484840360006106f2565b50505050565b6001600160a01b0383166105d257604051634b637e8f60e11b815260006004820152602401610472565b6001600160a01b0382166105fc5760405163ec442f0560e01b815260006004820152602401610472565b6105248383836107c7565b6005546001600160a01b031633146104a85760405163118cdaa760e01b8152336004820152602401610472565b6001600160a01b03821661065e5760405163ec442f0560e01b815260006004820152602401610472565b610485600083836107c7565b6001600160a01b03821661069457604051634b637e8f60e11b815260006004820152602401610472565b610485826000836107c7565b600580546001600160a01b038381166001600160a01b0319831681179093556040519116919082907f8be0079c531659141344cd1fd0a4f28419497f9722a3daafe3b4186f6b6457e090600090a35050565b6001600160a01b03841661071c5760405163e602df0560e01b815260006004820152602401610472565b6001600160a01b03831661074657604051634a1406b160e11b815260006004820152602401610472565b6001600160a01b03808516600090815260016020908152604080832093871683529290522082905580156105a257826001600160a01b0316846001600160a01b03167f8c5be1e5ebec7d5bd14f71427d1e84f3dd0314c0f7b2291e5b200ac8c7c3b925846040516107b991815260200190565b60405180910390a350505050565b6001600160a01b0383166107f25780600260008282546107e79190610a69565b909155506108649050565b6001600160a01b038316600090815260208190526040902054818110156108455760405163391434e360e21b81526001600160a01b03851660048201526024810182905260448101839052606401610472565b6001600160a01b03841660009081526020819052604090209082900390555b6001600160a01b0382166108805760028054829003905561089f565b6001600160a01b03821660009081526020819052604090208054820190555b816001600160a01b0316836001600160a01b03167fddf252ad1be2c89b69c2b068fc378daa952ba7f163c4a11628f55a4df523b3ef836040516108e491815260200190565b60405180910390a3505050565b600060208083528351808285015260005b8181101561091e57858101830151858201604001528201610902565b506000604082860101526040601f19601f8301168501019250505092915050565b80356001600160a01b038116811461095657600080fd5b919050565b6000806040838503121561096e57600080fd5b6109778361093f565b946020939093013593505050565b60008060006060848603121561099a57600080fd5b6109a38461093f565b92506109b16020850161093f565b9150604084013590509250925092565b6000602082840312156109d357600080fd5b5035919050565b6000602082840312156109ec57600080fd5b6109f58261093f565b9392505050565b60008060408385031215610a0f57600080fd5b610a188361093f565b9150610a266020840161093f565b90509250929050565b600181811c90821680610a4357607f821691505b602082108103610a6357634e487b7160e01b600052602260045260246000fd5b50919050565b808201808211156103e057634e487b7160e01b600052601160045260246000fdfea2646970667358221220989ffe155cb19a4d4fefca1d37fa98e02f87cc93b9e0a9e83271eed002344c8164736f6c63430008140033",
  "linkReferences": {},
  "deployedLinkReferences": {}
}